:100000000C945D000C9485000C9485000C94850084
:100010000C9485000C9485000C9485000C9485004C
:100020000C9485000C9485000C9485000C9485003C
:100030000C9485000C9485000C9485000C9485002C
:100040000C948E050C9485000C945C050C9436057C
:100050000C9485000C9485000C9485000C9485000C
:100060000C9485000C9485000000000024002700FB
:100070002A0000000000250028002B0004040404CE
:100080000404040402020202020203030303030342
:10009000010204081020408001020408102001021F
:1000A00004081020000000080002010000030407FB
:1000B0000000000000000000D80511241FBECFEF93
:1000C000D8E0DEBFCDBF11E0A0E0B1E0E4E9F5E1AA
:1000D00002C005900D92A83CB107D9F722E0A8EC28
:1000E000B1E001C01D92A03AB207E1F710E0CDE502
:1000F000D0E004C02197FE010E94BD0ACC35D10793
:10010000C9F70E9424060C94C80A0C940000CF92F0
:10011000DF92EF92FF920F931F93CF93DF936C01C7
:100120007A018B01C0E0D0E0CE15DF0589F0D8015F
:100130006D918D01D601ED91FC910190F081E02D42
:10014000C6010995892B11F47E0102C02196ECCFDE
:10015000C701DF91CF911F910F91FF90EF90DF903A
:10016000CF900895FC01538D448D252F30E0842FCE
:1001700090E0821B930B541710F0CF9608950197CF
:100180000895FC01918D828D981761F0828DDF01B9
:10019000A80FB11D5D968C91928D9F5F9F73928F7A
:1001A00090E008958FEF9FEF0895FC01918D828D6F
:1001B000981731F0828DE80FF11D858D90E008953C
:1001C0008FEF9FEF0895FC01918D228D892F90E094
:1001D000805C9F4F821B91098F73992708958BEE46
:1001E00091E00E94E30021E0892B09F420E0822FB6
:1001F0000895FC01848DDF01A80FB11DA35ABF4FE4
:100200002C91848D90E001968F739927848FA68915
:10021000B7892C93A089B1898C9180648C93938D3C
:10022000848D981306C00288F389E02D80818F7D2C
:1002300080830895EF92FF920F931F93CF93DF93E4
:10024000EC0181E0888F9B8D8C8D981305C0E88927
:10025000F989808185FD24C0F62E0B8D10E00F5F9B
:100260001F4F0F731127E02E8C8DE8120CC00FB6B4
:1002700007FCFACFE889F989808185FFF5CFCE01A7
:100280000E94F900F1CF8B8DFE01E80FF11DE35ABA
:10029000FF4FF0820B8FEA89FB898081806207C063
:1002A000EE89FF896083E889F98980818064808391
:1002B00081E090E0DF91CF911F910F91FF90EF903F
:1002C0000895CF93DF93EC01888D8823C9F0EA89E4
:1002D000FB89808185FD05C0A889B9898C9186FD3F
:1002E0000FC00FB607FCF5CF808185FFF2CFA8893C
:1002F000B9898C9185FFEDCFCE010E94F900E7CF3F
:10030000DF91CF91089580E090E0892B29F00E9441
:10031000EF0081110C940000089590E0FC01EC5571
:10032000FF4F3491FC01E057FF4F2491FC01E4584A
:10033000FF4FE491EE2309F43BC0332339F133300E
:1003400091F038F43130A9F0323001F584B58F7D69
:1003500012C0373091F03830A1F03430B9F48091C8
:1003600080008F7D03C0809180008F778093800014
:100370000DC084B58F7784BD09C08091B0008F77A0
:1003800003C08091B0008F7D8093B000F0E0EE0F4D
:10039000FF1FEE58FF4FA591B4918FB7F894EC91E1
:1003A000611103C020952E2301C02E2B2C938FBFEB
:1003B0000895CF93DF9390E0FC01E057FF4F249125
:1003C000FC01E458FF4F8491882361F190E0880F8D
:1003D000991FFC01E859FF4FC591D491FC01EE58DB
:1003E000FF4FA591B491611109C09FB7F89488811E
:1003F000209582238883EC912E230BC0623061F418
:100400009FB7F8943881822F809583238883EC915D
:100410002E2B2C939FBF06C08FB7F894E8812E2B0C
:1004200028838FBFDF91CF9108958E3008F08E50D2
:100430008770806480937C0080917A0080648093D0
:100440007A0080917A0086FDFCCF8091780020911F
:10045000790090E0922B08953FB7F8948091C901FC
:100460009091CA01A091CB01B091CC0126B5A89B77
:1004700005C02F3F19F00196A11DB11D3FBFBA2F36
:10048000A92F982F8827820F911DA11DB11DBC0196
:10049000CD0142E0660F771F881F991F4A95D1F75B
:1004A00008958F929F92AF92BF92CF92DF92EF9278
:1004B000FF926B017C010E942C024B015C01C11474
:1004C000D104E104F104F1F00E942C02DC01CB0123
:1004D00088199909AA09BB09883E9340A105B1056D
:1004E00070F321E0C21AD108E108F10888EE880E05
:1004F00083E0981EA11CB11CC114D104E104F104D5
:1005000019F7DDCFFF90EF90DF90CF90BF90AF90C5
:100510009F908F900895CF93DF93EC0160E08E81E0
:100520000E948D0161E08E810E948D0160E08E81CC
:100530000E948D018BE891E00197F1F7DF91CF9157
:100540000895CF92DF92EF92FF920F931F93CF9374
:10055000DF937C016C0187E0C80ED11CC0E0D0E0C5
:10056000062F10E0B8010C2E02C0759567950A940D
:10057000E2F76170F60181916F010E948D01219671
:10058000C430D10579F7C701DF91CF911F910F9149
:10059000FF90EF90DF90CF900C948B02CF92DF9280
:1005A000EF92FF920F931F93CF93DF93EC01F62E00
:1005B000642F8C810E948D018D818F3F19F060E046
:1005C0000E948D018F850F2D10E084FF25C06E01E4
:1005D00087E0C80ED11CE12CF12CB8010E2C02C012
:1005E000759567950A94E2F76170F60181916F0144
:1005F0000E948D01FFEFEF1AFF0A88E0E816F10470
:1006000061F7CE01DF91CF911F910F91FF90EF9095
:10061000DF90CF900C948B02B80184E075956795BC
:100620008A95E1F7CE010E94A1026F2DCE01DF91E4
:10063000CF911F910F91FF90EF90DF90CF900C948E
:10064000A10241E00E94CE0281E090E0089540E0E6
:100650000C94CE02EF92FF920F931F93CF93DF93F0
:10066000EC01423018F08F8588608F874B8B1C8A95
:1006700080E48D8B6E8B70E0605C7F4F6F8B61E0F0
:100680008C810E94D9018D818F3F19F061E00E9419
:10069000D90161E08E810E94D9017E0187E0E80ED8
:1006A000F11C00E010E08F8584FD03C084E090E041
:1006B00002C088E090E0081719074CF461E0F701E8
:1006C00081917F010E94D9010F5F1F4FECCF8BE317
:1006D0009DE00197F1F760E08C810E948D0160E060
:1006E0008E810E948D018D818F3F19F060E00E9404
:1006F0008D016F8564FD1DC063E0CE010E94A102E3
:100700000BE416E4C8010197F1F763E0CE010E9403
:10071000A102C8010197F1F763E0CE010E94A10296
:1007200083E592E00197F1F762E0CE010E94A10219
:1007300016C06062CE010E9427038BE496E4019705
:10074000F1F76F856062CE010E94270383E592E096
:100750000197F1F76F856062CE010E9427036F85D4
:100760006062CE010E94270384E0888B6CE0CE019A
:100770000E94270361E0CE010E9427038BE39FE1E3
:100780000197F1F782E0898B66E0CE01DF91CF918E
:100790001F910F91FF90EF900C942703643008F0A5
:1007A00063E090919B02691710F06FEF690FE62FDD
:1007B000F0E0E857FD4F9489682F690F606888E87A
:1007C00092E00C942703089580E090E008950E9441
:1007D000C30A6115710579F0FB0101900020E9F76A
:1007E0003197AF01461B570BDC01ED91FC91028064
:1007F000F381E02D099480E090E00895BC0188E841
:1008000092E00C94E9034F925F926F927F92EF9285
:10081000FF920F931F93CF93DF93CDB7DEB7A197CE
:100820000FB6F894DEBF0FBECDBF7C01FA01CB013D
:1008300019A2223008F42AE08E010F5D1F4F422ECC
:10084000512C612C712CBF01A30192010E949B0AC3
:10085000F901CA01015011096A3014F4605D01C048
:10086000695CD8016C93232B242B252B61F7B801ED
:10087000C7010E94E903A1960FB6F894DEBF0FBE30
:10088000CDBFDF91CF911F910F91FF90EF907F909F
:100890006F905F904F9008954F925F926F927F920A
:1008A0008F929F92AF92BF92CF92DF92EF92FF9280
:1008B000CF93DF93EC016A017B01B22E9A01AB0169
:1008C000C701B6010E94960A882319F06EE171E013
:1008D00027C026013701E89477F82FEF3FEF4FE765
:1008E0005FE7C301B2010E94960A81110DC02FEF8C
:1008F0003FEF4FE75FE7C301B2010E94CC08181633
:100900001CF462E271E00CC02FEF3FEF4FE75FE4B1
:10091000C701B6010E94240A18169CF466E271E031
:10092000CE01DF91CF91FF90EF90DF90CF90BF90FD
:10093000AF909F908F907F906F905F904F900C94AE
:10094000E9032FEF3FEF4FE75FECC701B6010E94CD
:10095000CC0887FDE3CF20E030E0A901C701B60154
:100960000E94CC0887FF0EC0E881F9810190F081D8
:10097000E02D6DE2CE0109954C01F7FAF094F7F8FD
:10098000F09402C0812C912CA12C60E070E080E0FA
:100990009FE3AB1441F020E030E040E251E40E94DC
:1009A000D108A394F6CF9B01AC01C701B6010E9408
:1009B00060082B013C010E9443096B017C010E94ED
:1009C00072099B01AC01C301B2010E945F082B01B7
:1009D0003C012AE0B701A601CE010E9403047C017C
:1009E000E80CF91CBB2051F0E881F9810190F081FD
:1009F000E02D6EE2CE010995E80EF91EDB2CDD201C
:100A000029F120E030E040E251E4C301B2010E944C
:100A1000290A2B013C010E9443094B01A12CB12C56
:100A20002AE0B501A401CE010E940304E80EF91EDC
:100A3000C501B4010E9472099B01AC01C301B2015E
:100A40000E945F082B013C01DA94D9CFC701DF91E6
:100A5000CF91FF90EF90DF90CF90BF90AF909F909D
:100A60008F907F906F905F904F9008951F920F929C
:100A70000FB60F9211242F933F934F935F936F9371
:100A80007F938F939F93AF93BF93EF93FF938BEEDF
:100A900091E00E94F900FF91EF91BF91AF919F917A
:100AA0008F917F916F915F914F913F912F910F9017
:100AB0000FBE0F901F9018951F920F920FB60F92B6
:100AC00011242F938F939F93EF93FF93E091FB015A
:100AD000F091FC018081E0910102F091020282FD1F
:100AE00012C09081809104028F5F8F732091050264
:100AF000821751F0E0910402F0E0E551FE4F958F2E
:100B00008093040201C08081FF91EF919F918F91AA
:100B10002F910F900FBE0F901F9018951F920F925C
:100B20000FB60F9211242F933F938F939F93AF9300
:100B3000BF938091CD019091CE01A091CF01B09152
:100B4000D0013091C80123E0230F2D3720F4019606
:100B5000A11DB11D05C026E8230F0296A11DB11DE0
:100B60002093C8018093CD019093CE01A093CF0133
:100B7000B093D0018091C9019091CA01A091CB019D
:100B8000B091CC010196A11DB11D8093C901909334
:100B9000CA01A093CB01B093CC01BF91AF919F91BB
:100BA0008F913F912F910F900FBE0F901F9018952E
:100BB000EBEEF1E01382128288EE93E0A0E0B0E069
:100BC00084839583A683B78384E091E091838083B7
:100BD00085EC90E09587848784EC90E09787868702
:100BE00080EC90E0918B808B81EC90E0938B828BFA
:100BF00082EC90E0958B848B86EC90E0978B868BD3
:100C0000118E128E138E148EE8E8F2E01382128297
:100C100086E191E09183808388E084838FEF8583F0
:100C200089E086838AE087838BE080878CE08187F8
:100C30008DE082871386148615861686178641E016
:100C400060E1CF010C942A03789484B5826084BD5E
:100C500084B5816084BD85B5826085BD85B58160C0
:100C600085BD80916E00816080936E00109281003E
:100C700080918100826080938100809181008160F9
:100C800080938100809180008160809380008091BA
:100C9000B10084608093B1008091B0008160809346
:100CA000B00080917A00846080937A0080917A000D
:100CB000826080937A0080917A00816080937A00CC
:100CC00080917A00806880937A001092C100E09150
:100CD000FB01F091FC0182E08083E091F701F0914B
:100CE000F8011082E091F901F091FA018FEC808314
:100CF00010920302E091FF01F091000286E08083F0
:100D0000E091FD01F091FE01808180618083E0919E
:100D1000FD01F091FE01808188608083E091FD01FA
:100D2000F091FE01808180688083E091FD01F09167
:100D3000FE0180818F7D808360E08EE00E94D9017A
:100D400060E08FE00E94D90161E086E00E94D90155
:100D500060E086E00E948D0161E087E00E94D90199
:100D600060E087E00E948D010BE31FE18FB7F894EC
:100D70008090CD019090CE01A090CF01B090D00195
:100D80008FBFE12C84E0F82EC0E0D0E02FB7F894BC
:100D90008091CD019091CE01A091CF01B091D00171
:100DA0002FBF88199909AA09BB09883E9340A1055C
:100DB000B10560F48EE00E941502C817D9070CF443
:100DC000EC018E159F0514F77C01E0CFBE016E1972
:100DD0007F09072E000C880B990B0E94740920E0F4
:100DE00030E040EA50E40E94290A20E030E040E888
:100DF0005AE30E94290A6093E7017093E801809307
:100E0000E9019093EA0120E030E040E05FE30E94D6
:100E1000290A24EF3DEF44E35FE30E94290A60932F
:100E2000E3017093E4018093E5019093E60120E0F3
:100E300030E04AE754E40E94290A20E030E046E12D
:100E400054E40E94D1086B017C016093DF01709330
:100E5000E0018093E1019093E2016093DB017093E4
:100E6000DC018093DD019093DE018FE00E9415028A
:100E70009093DA018093D901BC01990F880B990BEB
:100E80000E94740926E13DEB4BE95EE30E94290ACA
:100E90006093D5017093D6018093D7019093D801C8
:100EA000A70196010E94290A6093D1017093D20193
:100EB0008093D3019093D40122E0B701A6018BEE79
:100EC00091E00E944C0444E064E188E892E00E94D2
:100ED0002A0360E080E00E94CE038AE291E00E9453
:100EE000FE0361E082E00E94CE038FE391E00E9466
:100EF000FE0361E08BE00E94CE034091DF01509140
:100F0000E0016091E1017091E20123E088E892E064
:100F10000E944C0461E080E10E94CE0388E491E0ED
:100F20000E94FE0362E082E00E94CE038AE491E028
:100F30000E94FE0362E08BE00E94CE034091D50147
:100F40005091D6016091D7017091D80123E088E8D3
:100F500092E00E944C0462E082E10E94CE0385E5AB
:100F600091E00E94FE0363E082E00E94CE0387E5E9
:100F700091E00E94FE0363E08BE00E94CE0340916B
:100F8000D1015091D2016091D3017091D40123E03D
:100F900088E892E00E944C0463E083E10E94CE0363
:100FA00080E691E00E94FE0368EB7BE080E090E049
:100FB0000E94510261E088E892E00E942703C80184
:100FC0000197F1F760E080E00E94CE038AE291E0B1
:100FD0000E94FE0361E080E00E94CE0382E691E081
:100FE0000E94FE0320E030E040EC50E46091DB0121
:100FF0007091DC018091DD019091DE010E94240A54
:1010000062E0181634F480E00E94CE0386E791E097
:1010100005C080E00E94CE038AE891E00E94FE03B2
:1010200020E030E040E451E46091DB017091DC01AC
:101030008091DD019091DE010E94240A63E0181680
:1010400034F480E00E94CE038FE991E005C080E097
:101050000E94CE0383EB91E00E94FE03C090DB016F
:10106000D090DC01E090DD01F090DE0120E030E086
:1010700040EC50E4C701B6010E94240A181614F48B
:1010800061E001C060E086E00E948D0120E030E078
:1010900040E451E4C701B6010E94240A181614F472
:1010A00061E001C060E087E00E948D0164EF71E0C3
:1010B00080E090E00E9451020E94830157CE505878
:1010C000BB27AA270E9477080C94EA090E94DC0932
:1010D00038F00E94E30920F039F49F3F19F426F418
:1010E0000C94D9090EF4E095E7FB0C94D309E92F91
:1010F0000E94FB0958F3BA17620773078407950724
:1011000020F079F4A6F50C941D0A0EF4E0950B2E50
:10111000BA2FA02D0B01B90190010C01CA01A00149
:101120001124FF27591B99F0593F50F4503E68F1A4
:101130001A16F040A22F232F342F4427585FF3CFE5
:10114000469537952795A795F0405395C9F77EF4B6
:101150001F16BA0B620B730B840BBAF09150A1F0FF
:10116000FF0FBB1F661F771F881FC2F70EC0BA0F85
:10117000621F731F841F48F4879577956795B7950D
:10118000F7959E3F08F0B0CF9395880F08F0992708
:10119000EE0F9795879508950E94AF0908F481E0B6
:1011A00008950E94E5080C94EA090E94E30958F0AA
:1011B0000E94DC0940F029F45F3F29F00C94D30928
:1011C00051110C941E0A0C94D9090E94FB0968F372
:1011D0009923B1F3552391F3951B550BBB27AA27F0
:1011E00062177307840738F09F5F5F4F220F331F2A
:1011F000441FAA1FA9F335D00E2E3AF0E0E832D0F2
:1012000091505040E695001CCAF72BD0FE2F29D0F4
:10121000660F771F881FBB1F261737074807AB07C6
:10122000B0E809F0BB0B802DBF01FF2793585F4F3B
:101230003AF09E3F510578F00C94D3090C941E0AA5
:101240005F3FE4F3983ED4F3869577956795B7951D
:10125000F7959F5FC9F7880F911D9695879597F928
:101260000895E1E0660F771F881FBB1F62177307A1
:101270008407BA0720F0621B730B840BBA0BEE1FB6
:1012800088F7E09508950E94030A88F09F5798F028
:10129000B92F9927B751B0F0E1F0660F771F881F7B
:1012A000991F1AF0BA95C9F714C0B13091F00E9495
:1012B0001D0AB1E008950C941D0A672F782F882726
:1012C000B85F39F0B93FCCF3869577956795B395BC
:1012D000D9F73EF490958095709561957F4F8F4F2B
:1012E0009F4F0895E89409C097FB3EF49095809530
:1012F000709561957F4F8F4F9F4F9923A9F0F92FDC
:1013000096E9BB279395F695879577956795B79559
:10131000F111F8CFFAF4BB0F11F460FF1BC06F5F3F
:101320007F4F8F4F9F4F16C0882311F096E911C051
:10133000772321F09EE8872F762F05C0662371F072
:1013400096E8862F70E060E02AF09A95660F771F86
:10135000881FDAF7880F9695879597F90895990F62
:101360000008550FAA0BE0E8FEEF16161706E8076F
:10137000F907C0F012161306E407F50798F0621B90
:10138000730B840B950B39F40A2661F0232B242B65
:10139000252B21F408950A2609F4A140A6958FEF84
:1013A000811D811D089597F99F6780E870E060E0D6
:1013B00008959FEF80EC089500240A9416161706EE
:1013C00018060906089500240A9412161306140636
:1013D00005060895092E0394000C11F4882352F099
:1013E000BB0F40F4BF2B11F460FF04C06F5F7F4F51
:1013F0008F4F9F4F089557FD9058440F551F59F038
:101400005F3F71F04795880F97FB991F61F09F3FF1
:1014100079F087950895121613061406551FF2CF1A
:101420004695F1DF08C0161617061806991FF1CF6A
:1014300086957105610508940895E894BB27662791
:101440007727CB0197F908950E94AF0908F48FEF31
:1014500008950E943C0A0C94EA090E94DC0938F0C5
:101460000E94E30920F0952311F00C94D3090C9409
:10147000D90911240C941E0A0E94FB0970F3959F50
:10148000C1F3950F50E0551F629FF001729FBB277B
:10149000F00DB11D639FAA27F00DB11DAA1F649F17
:1014A0006627B00DA11D661F829F2227B00DA11DCA
:1014B000621F739FB00DA11D621F839FA00D611D50
:1014C000221F749F3327A00D611D231F849F600D71
:1014D000211D822F762F6A2F11249F5750409AF09A
:1014E000F1F088234AF0EE0FFF1FBB1F661F771F26
:1014F000881F91505040A9F79E3F510580F00C94F1
:10150000D3090C941E0A5F3FE4F3983ED4F386950A
:1015100077956795B795F795E7959F5FC1F7FE2B90
:10152000880F911D9695879597F908950E94AF09A8
:10153000880B990B0895A1E21A2EAA1BBB1BFD0173
:101540000DC0AA1FBB1FEE1FFF1FA217B307E407A2
:10155000F50720F0A21BB30BE40BF50B661F771FFA
:10156000881F991F1A9469F76095709580959095DA
:101570009B01AC01BD01CF010895EE0FFF1F059047
:10158000F491E02D099481E090E0F8940C94C80A5D
:04159000F894FFCFFD
:10159400000000001A018700B2006101E300C100ED
:1015A400D5000000000021038700E403E3036E611B
:1015B4006E00696E66006F7666002D2D2D4C4F41CE
:1015C40044204D414E4147454D454E542D2D004339
:1015D400757272656E743D004100566F6C7461677C
:1015E40065203D20005600506F776572203D200035
:1015F40057005472616E73666F726D65722030317C
:10160400203D204F4E005472616E73666F726D659B
:1016140072203032203D204F4E005472616E73664A
:101624006F726D6572203032203D204F4646005463
:1016340072616E73666F726D6572203033203D2067
:101644004F4E005472616E73666F726D6572203016
:0816540033203D204F46460003
:00000001FF
